{"abi":[{"type":"constructor","inputs":[{"name":"beeToken_","type":"address","internalType":"address"},{"name":"uris","type":"string[]","internalType":"string[]"}],"stateMutability":"nonpayable"},{"type":"function","name":"BEE_TOKEN","inputs":[],"outputs":[{"name":"","type":"address","internalType":"contract IERC20"}],"stateMutability":"view"},{"type":"function","name":"MAX_SUPPLY","inputs":[],"outputs":[{"name":"","type":"uint256","internalType":"uint256"}],"stateMutability":"view"},{"type":"function","name":"approve","inputs":[{"name":"to","type":"address","internalType":"address"},{"name":"tokenId","type":"uint256","internalType":"uint256"}],"outputs":[],"stateMutability":"nonpayable"},{"type":"function","name":"balanceOf","inputs":[{"name":"owner","type":"address","internalType":"address"}],"outputs":[{"name":"","type":"uint256","internalType":"uint256"}],"stateMutability":"view"},{"type":"function","name":"getApproved","inputs":[{"name":"tokenId","type":"uint256","internalType":"uint256"}],"outputs":[{"name":"","type":"address","internalType":"address"}],"stateMutability":"view"},{"type":"function","name":"isApprovedForAll","inputs":[{"name":"owner","type":"address","internalType":"address"},{"name":"operator","type":"address","internalType":"address"}],"outputs":[{"name":"","type":"bool","internalType":"bool"}],"stateMutability":"view"},{"type":"function","name":"mint","inputs":[],"outputs":[],"stateMutability":"nonpayable"},{"type":"function","name":"mintPrice","inputs":[],"outputs":[{"name":"","type":"uint256","internalType":"uint256"}],"stateMutability":"view"},{"type":"function","name":"name","inputs":[],"outputs":[{"name":"","type":"string","internalType":"string"}],"stateMutability":"view"},{"type":"function","name":"nextTokenId","inputs":[],"outputs":[{"name":"","type":"uint256","internalType":"uint256"}],"stateMutability":"view"},{"type":"function","name":"owner","inputs":[],"outputs":[{"name":"","type":"address","internalType":"address"}],"stateMutability":"view"},{"type":"function","name":"ownerOf","inputs":[{"name":"tokenId","type":"uint256","internalType":"uint256"}],"outputs":[{"name":"","type":"address","internalType":"address"}],"stateMutability":"view"},{"type":"function","name":"renounceOwnership","inputs":[],"outputs":[],"stateMutability":"nonpayable"},{"type":"function","name":"safeTransferFrom","inputs":[{"name":"from","type":"address","internalType":"address"},{"name":"to","type":"address","internalType":"address"},{"name":"tokenId","type":"uint256","internalType":"uint256"}],"outputs":[],"stateMutability":"nonpayable"},{"type":"function","name":"safeTransferFrom","inputs":[{"name":"from","type":"address","internalType":"address"},{"name":"to","type":"address","internalType":"address"},{"name":"tokenId","type":"uint256","internalType":"uint256"},{"name":"data","type":"bytes","internalType":"bytes"}],"outputs":[],"stateMutability":"nonpayable"},{"type":"function","name":"setApprovalForAll","inputs":[{"name":"operator","type":"address","internalType":"address"},{"name":"approved","type":"bool","internalType":"bool"}],"outputs":[],"stateMutability":"nonpayable"},{"type":"function","name":"supportsInterface","inputs":[{"name":"interfaceId","type":"bytes4","internalType":"bytes4"}],"outputs":[{"name":"","type":"bool","internalType":"bool"}],"stateMutability":"view"},{"type":"function","name":"symbol","inputs":[],"outputs":[{"name":"","type":"string","internalType":"string"}],"stateMutability":"view"},{"type":"function","name":"tokenURI","inputs":[{"name":"tokenId","type":"uint256","internalType":"uint256"}],"outputs":[{"name":"","type":"string","internalType":"string"}],"stateMutability":"view"},{"type":"function","name":"tokenURIs","inputs":[{"name":"","type":"uint256","internalType":"uint256"}],"outputs":[{"name":"","type":"string","internalType":"string"}],"stateMutability":"view"},{"type":"function","name":"totalMinted","inputs":[],"outputs":[{"name":"","type":"uint256","internalType":"uint256"}],"stateMutability":"view"},{"type":"function","name":"transferFrom","inputs":[{"name":"from","type":"address","internalType":"address"},{"name":"to","type":"address","internalType":"address"},{"name":"tokenId","type":"uint256","internalType":"uint256"}],"outputs":[],"stateMutability":"nonpayable"},{"type":"function","name":"transferOwnership","inputs":[{"name":"newOwner","type":"address","internalType":"address"}],"outputs":[],"stateMutability":"nonpayable"},{"type":"function","name":"updateTokenURI","inputs":[{"name":"index","type":"uint256","internalType":"uint256"},{"name":"newUri","type":"string","internalType":"string"}],"outputs":[],"stateMutability":"nonpayable"},{"type":"event","name":"Approval","inputs":[{"name":"owner","type":"address","indexed":true,"internalType":"address"},{"name":"approved","type":"address","indexed":true,"internalType":"address"},{"name":"tokenId","type":"uint256","indexed":true,"internalType":"uint256"}],"anonymous":false},{"type":"event","name":"ApprovalForAll","inputs":[{"name":"owner","type":"address","indexed":true,"internalType":"address"},{"name":"operator","type":"address","indexed":true,"internalType":"address"},{"name":"approved","type":"bool","indexed":false,"internalType":"bool"}],"anonymous":false},{"type":"event","name":"BatchMetadataUpdate","inputs":[{"name":"_fromTokenId","type":"uint256","indexed":false,"internalType":"uint256"},{"name":"_toTokenId","type":"uint256","indexed":false,"internalType":"uint256"}],"anonymous":false},{"type":"event","name":"MetadataUpdate","inputs":[{"name":"_tokenId","type":"uint256","indexed":false,"internalType":"uint256"}],"anonymous":false},{"type":"event","name":"Minted","inputs":[{"name":"minter","type":"address","indexed":true,"internalType":"address"},{"name":"tokenId","type":"uint256","indexed":true,"internalType":"uint256"},{"name":"tokenUri","type":"string","indexed":false,"internalType":"string"}],"anonymous":false},{"type":"event","name":"OwnershipTransferred","inputs":[{"name":"previousOwner","type":"address","indexed":true,"internalType":"address"},{"name":"newOwner","type":"address","indexed":true,"internalType":"address"}],"anonymous":false},{"type":"event","name":"Transfer","inputs":[{"name":"from","type":"address","indexed":true,"internalType":"address"},{"name":"to","type":"address","indexed":true,"internalType":"address"},{"name":"tokenId","type":"uint256","indexed":true,"internalType":"uint256"}],"anonymous":false},{"type":"error","name":"ERC721IncorrectOwner","inputs":[{"name":"sender","type":"address","internalType":"address"},{"name":"tokenId","type":"uint256","internalType":"uint256"},{"name":"owner","type":"address","internalType":"address"}]},{"type":"error","name":"ERC721InsufficientApproval","inputs":[{"name":"operator","type":"address","internalType":"address"},{"name":"tokenId","type":"uint256","internalType":"uint256"}]},{"type":"error","name":"ERC721InvalidApprover","inputs":[{"name":"approver","type":"address","internalType":"address"}]},{"type":"error","name":"ERC721InvalidOperator","inputs":[{"name":"operator","type":"address","internalType":"address"}]},{"type":"error","name":"ERC721InvalidOwner","inputs":[{"name":"owner","type":"address","internalType":"address"}]},{"type":"error","name":"ERC721InvalidReceiver","inputs":[{"name":"receiver","type":"address","internalType":"address"}]},{"type":"error","name":"ERC721InvalidSender","inputs":[{"name":"sender","type":"address","internalType":"address"}]},{"type":"error","name":"ERC721NonexistentToken","inputs":[{"name":"tokenId","type":"uint256","internalType":"uint256"}]},{"type":"error","name":"OwnableInvalidOwner","inputs":[{"name":"owner","type":"address","internalType":"address"}]},{"type":"error","name":"OwnableUnauthorizedAccount","inputs":[{"name":"account","type":"address","internalType":"address"}]},{"type":"error","name":"ReentrancyGuardReentrantCall","inputs":[]}],"bytecode":{"object":"0x60a06040526001600a55678ac7230489e80000600b5534801562000021575f80fd5b5060405162001e4938038062001e498339810160408190526200004491620002c9565b3360405180604001604052806009815260200168111c9091514813919560ba1b815250604051806040016040528060048152602001632122a2a760e11b815250815f9081620000949190620004ad565b506001620000a38282620004ad565b5050506001600160a01b038116620000d557604051631e4fbdf760e01b81525f60048201526024015b60405180910390fd5b620000e08162000161565b5060016008556001600160a01b0382166080528051620001435760405162461bcd60e51b815260206004820152601360248201527f4e656564206174206c65617374203120555249000000000000000000000000006044820152606401620000cc565b80516200015890600c906020840190620001b2565b50505062000579565b600780546001600160a01b038381166001600160a01b0319831681179093556040519116919082907f8be0079c531659141344cd1fd0a4f28419497f9722a3daafe3b4186f6b6457e0905f90a35050565b828054828255905f5260205f20908101928215620001fb579160200282015b82811115620001fb5782518290620001ea9082620004ad565b5091602001919060010190620001d1565b50620002099291506200020d565b5090565b8082111562000209575f6200022382826200022d565b506001016200020d565b5080546200023b9062000423565b5f825580601f106200024b575050565b601f0160209004905f5260205f20908101906200026991906200026c565b50565b5b8082111562000209575f81556001016200026d565b634e487b7160e01b5f52604160045260245ffd5b604051601f8201601f191681016001600160401b0381118282101715620002c157620002c162000282565b604052919050565b5f806040808486031215620002dc575f80fd5b83516001600160a01b0381168114620002f3575f80fd5b602085810151919450906001600160401b038082111562000312575f80fd5b8187019150601f88601f84011262000328575f80fd5b8251828111156200033d576200033d62000282565b8060051b6200034e86820162000296565b918252848101860191868101908c84111562000368575f80fd5b87870192505b83831015620004105782518681111562000386575f80fd5b8701603f81018e1362000397575f80fd5b8881015187811115620003ae57620003ae62000282565b620003c1818801601f19168b0162000296565b8181528f8c838501011115620003d5575f80fd5b5f5b82811015620003f4578381018d01518282018d01528b01620003d7565b505f9181018b019190915283525091870191908701906200036e565b8099505050505050505050509250929050565b600181811c908216806200043857607f821691505b6020821081036200045757634e487b7160e01b5f52602260045260245ffd5b50919050565b601f821115620004a857805f5260205f20601f840160051c81016020851015620004845750805b601f840160051c820191505b81811015620004a5575f815560010162000490565b50505b505050565b81516001600160401b03811115620004c957620004c962000282565b620004e181620004da845462000423565b846200045d565b602080601f83116001811462000517575f8415620004ff5750858301515b5f19600386901b1c1916600185901b17855562000571565b5f85815260208120601f198616915b82811015620005475788860151825594840194600190910190840162000526565b50858210156200056557878501515f19600388901b60f8161c191681555b505060018460011b0185555b505050505050565b6080516118b0620005995f395f818161027b015261048b01526118b05ff3fe608060405234801561000f575f80fd5b5060043610610153575f3560e01c806370a08231116100bf578063a22cb46511610079578063a22cb465146102bf578063a2309ff8146102d2578063b88d4fde146102db578063c87b56dd146102ee578063e985e9c514610301578063f2fde38b14610314575f80fd5b806370a082311461025b578063715018a61461026e5780637521236c1461027657806375794a3c1461029d5780638da5cb5b146102a657806395d89b41146102b7575f80fd5b806323b872dd1161011057806323b872dd146101ef57806332cb6b0c1461020257806342842e0e146102195780636352211e1461022c5780636817c76c1461023f5780636c8b703f14610248575f80fd5b806301ffc9a71461015757806306fdde031461017f578063081812fc14610194578063095ea7b3146101bf5780631249c58b146101d457806318e97fd1146101dc575b5f80fd5b61016a610165366004611290565b610327565b60405190151581526020015b60405180910390f35b610187610351565b60405161017691906112f8565b6101a76101a236600461130a565b6103e0565b6040516001600160a01b039091168152602001610176565b6101d26101cd36600461133c565b610407565b005b6101d2610416565b6101d26101ea366004611364565b610639565b6101d26101fd3660046113d9565b6106b7565b61020b61271081565b604051908152602001610176565b6101d26102273660046113d9565b61073a565b6101a761023a36600461130a565b610759565b61020b600b5481565b61018761025636600461130a565b610763565b61020b610269366004611412565b610809565b6101d261084e565b6101a77f000000000000000000000000000000000000000000000000000000000000000081565b61020b600a5481565b6007546001600160a01b03166101a7565b61018761085f565b6101d26102cd36600461142b565b61086e565b61020b60095481565b6101d26102e9366004611478565b610879565b6101876102fc36600461130a565b610891565b61016a61030f36600461154d565b61099c565b6101d2610322366004611412565b6109c9565b5f6001600160e01b03198216632483248360e11b148061034b575061034b82610a06565b92915050565b60605f805461035f9061157e565b80601f016020809104026020016040519081016040528092919081815260200182805461038b9061157e565b80156103d65780601f106103ad576101008083540402835291602001916103d6565b820191905f5260205f20905b8154815290600101906020018083116103b957829003601f168201915b5050505050905090565b5f6103ea82610a55565b505f828152600460205260409020546001600160a01b031661034b565b610412828233610a8d565b5050565b612710600954106104635760405162461bcd60e51b815260206004820152601260248201527113585e081cdd5c1c1b1e481c995858da195960721b60448201526064015b60405180910390fd5b61046b610a9a565b600b5460405163079cc67960e41b815233600482015260248101919091527f00000000000000000000000000000000000000000000000000000000000000006001600160a01b0316906379cc6790906044015f604051808303815f87803b1580156104d4575f80fd5b505af11580156104e6573d5f803e3d5ffd5b5050600a80545f93509150826104fb836115ca565b90915550600c549091505f906105126001846115e2565b61051c91906115f5565b90505f600c828154811061053257610532611614565b905f5260205f200180546105459061157e565b80601f01602080910402602001604051908101604052809291908181526020018280546105719061157e565b80156105bc5780601f10610593576101008083540402835291602001916105bc565b820191905f5260205f20905b81548152906001019060200180831161059f57829003601f168201915b505050505090506105cd3384610ac4565b6105d78382610add565b600160095f8282546105e99190611628565b9091555050604051839033907fe7cd4ce7f2a465edc730269a1305e8a48bad821e8fb7e152ec413829c01a53c4906106229085906112f8565b60405180910390a35050506106376001600855565b565b610641610b2c565b600c5483106106875760405162461bcd60e51b8152602060048201526012602482015271496e646578206f7574206f662072616e676560701b604482015260640161045a565b8181600c858154811061069c5761069c611614565b905f5260205f200191826106b192919061167f565b50505050565b6001600160a01b0382166106e057604051633250574960e11b81525f600482015260240161045a565b5f6106ec838333610b59565b9050836001600160a01b0316816001600160a01b0316146106b1576040516364283d7b60e01b81526001600160a01b038086166004830152602482018490528216604482015260640161045a565b61075483838360405180602001604052805f815250610879565b505050565b5f61034b82610a55565b600c8181548110610772575f80fd5b905f5260205f20015f91509050805461078a9061157e565b80601f01602080910402602001604051908101604052809291908181526020018280546107b69061157e565b80156108015780601f106107d857610100808354040283529160200191610801565b820191905f5260205f20905b8154815290600101906020018083116107e457829003601f168201915b505050505081565b5f6001600160a01b038216610833576040516322718ad960e21b81525f600482015260240161045a565b506001600160a01b03165f9081526003602052604090205490565b610856610b2c565b6106375f610c4b565b60606001805461035f9061157e565b610412338383610c9c565b6108848484846106b7565b6106b13385858585610d3a565b606061089c82610a55565b505f82815260066020526040812080546108b59061157e565b80601f01602080910402602001604051908101604052809291908181526020018280546108e19061157e565b801561092c5780601f106109035761010080835404028352916020019161092c565b820191905f5260205f20905b81548152906001019060200180831161090f57829003601f168201915b505050505090505f61094860408051602081019091525f815290565b905080515f03610959575092915050565b81511561098b578082604051602001610973929190611739565b60405160208183030381529060405292505050919050565b61099484610e62565b949350505050565b6001600160a01b039182165f90815260056020908152604080832093909416825291909152205460ff1690565b6109d1610b2c565b6001600160a01b0381166109fa57604051631e4fbdf760e01b81525f600482015260240161045a565b610a0381610c4b565b50565b5f6001600160e01b031982166380ac58cd60e01b1480610a3657506001600160e01b03198216635b5e139f60e01b145b8061034b57506301ffc9a760e01b6001600160e01b031983161461034b565b5f818152600260205260408120546001600160a01b03168061034b57604051637e27328960e01b81526004810184905260240161045a565b6107548383836001610ed3565b600260085403610abd57604051633ee5aeb560e01b815260040160405180910390fd5b6002600855565b610412828260405180602001604052805f815250610fd7565b5f828152600660205260409020610af48282611767565b506040518281527ff8e1a15aba9398e019f0b49df1a4fde98ee17ae345cb5f6b5e2c27f5033e8ce79060200160405180910390a15050565b6007546001600160a01b031633146106375760405163118cdaa760e01b815233600482015260240161045a565b5f828152600260205260408120546001600160a01b0390811690831615610b8557610b85818486610fee565b6001600160a01b03811615610bbf57610ba05f855f80610ed3565b6001600160a01b0381165f90815260036020526040902080545f190190555b6001600160a01b03851615610bed576001600160a01b0385165f908152600360205260409020805460010190555b5f8481526002602052604080822080546001600160a01b0319166001600160a01b0389811691821790925591518793918516917fddf252ad1be2c89b69c2b068fc378daa952ba7f163c4a11628f55a4df523b3ef91a4949350505050565b600780546001600160a01b038381166001600160a01b0319831681179093556040519116919082907f8be0079c531659141344cd1fd0a4f28419497f9722a3daafe3b4186f6b6457e0905f90a35050565b6001600160a01b038216610cce57604051630b61174360e31b81526001600160a01b038316600482015260240161045a565b6001600160a01b038381165f81815260056020908152604080832094871680845294825291829020805460ff191686151590811790915591519182527f17307eab39ab6107e8899845ad3d59bd9653f200f220920489ca2b5937696c31910160405180910390a3505050565b6001600160a01b0383163b15610e5b57604051630a85bd0160e11b81526001600160a01b0384169063150b7a0290610d7c908890889087908790600401611823565b6020604051808303815f875af1925050508015610db6575060408051601f3d908101601f19168201909252610db39181019061185f565b60015b610e1d573d808015610de3576040519150601f19603f3d011682016040523d82523d5f602084013e610de8565b606091505b5080515f03610e1557604051633250574960e11b81526001600160a01b038516600482015260240161045a565b805160208201fd5b6001600160e01b03198116630a85bd0160e11b14610e5957604051633250574960e11b81526001600160a01b038516600482015260240161045a565b505b5050505050565b6060610e6d82610a55565b505f610e8360408051602081019091525f815290565b90505f815111610ea15760405180602001604052805f815250610ecc565b80610eab84611052565b604051602001610ebc929190611739565b6040516020818303038152906040525b9392505050565b8080610ee757506001600160a01b03821615155b15610fa8575f610ef684610a55565b90506001600160a01b03831615801590610f225750826001600160a01b0316816001600160a01b031614155b8015610f355750610f33818461099c565b155b15610f5e5760405163a9fbf51f60e01b81526001600160a01b038416600482015260240161045a565b8115610fa65783856001600160a01b0316826001600160a01b03167f8c5be1e5ebec7d5bd14f71427d1e84f3dd0314c0f7b2291e5b200ac8c7c3b92560405160405180910390a45b505b50505f90815260046020526040902080546001600160a01b0319166001600160a01b0392909216919091179055565b610fe183836110e2565b610754335f858585610d3a565b610ff9838383611143565b610754576001600160a01b03831661102757604051637e27328960e01b81526004810182905260240161045a565b60405163177e802f60e01b81526001600160a01b03831660048201526024810182905260440161045a565b60605f61105e836111a4565b60010190505f8167ffffffffffffffff81111561107d5761107d611464565b6040519080825280601f01601f1916602001820160405280156110a7576020820181803683370190505b5090508181016020015b5f19016f181899199a1a9b1b9c1cb0b131b232b360811b600a86061a8153600a85049450846110b157509392505050565b6001600160a01b03821661110b57604051633250574960e11b81525f600482015260240161045a565b5f61111783835f610b59565b90506001600160a01b03811615610754576040516339e3563760e11b81525f600482015260240161045a565b5f6001600160a01b038316158015906109945750826001600160a01b0316846001600160a01b0316148061117c575061117c848461099c565b806109945750505f908152600460205260409020546001600160a01b03908116911614919050565b5f8072184f03e93ff9f4daa797ed6e38ed64bf6a1f0160401b83106111e25772184f03e93ff9f4daa797ed6e38ed64bf6a1f0160401b830492506040015b6d04ee2d6d415b85acef8100000000831061120e576d04ee2d6d415b85acef8100000000830492506020015b662386f26fc10000831061122c57662386f26fc10000830492506010015b6305f5e1008310611244576305f5e100830492506008015b612710831061125857612710830492506004015b6064831061126a576064830492506002015b600a831061034b5760010192915050565b6001600160e01b031981168114610a03575f80fd5b5f602082840312156112a0575f80fd5b8135610ecc8161127b565b5f5b838110156112c55781810151838201526020016112ad565b50505f910152565b5f81518084526112e48160208601602086016112ab565b601f01601f19169290920160200192915050565b602081525f610ecc60208301846112cd565b5f6020828403121561131a575f80fd5b5035919050565b80356001600160a01b0381168114611337575f80fd5b919050565b5f806040838503121561134d575f80fd5b61135683611321565b946020939093013593505050565b5f805f60408486031215611376575f80fd5b83359250602084013567ffffffffffffffff80821115611394575f80fd5b818601915086601f8301126113a7575f80fd5b8135818111156113b5575f80fd5b8760208285010111156113c6575f80fd5b6020830194508093505050509250925092565b5f805f606084860312156113eb575f80fd5b6113f484611321565b925061140260208501611321565b9150604084013590509250925092565b5f60208284031215611422575f80fd5b610ecc82611321565b5f806040838503121561143c575f80fd5b61144583611321565b915060208301358015158114611459575f80fd5b809150509250929050565b634e487b7160e01b5f52604160045260245ffd5b5f805f806080858703121561148b575f80fd5b61149485611321565b93506114a260208601611321565b925060408501359150606085013567ffffffffffffffff808211156114c5575f80fd5b818701915087601f8301126114d8575f80fd5b8135818111156114ea576114ea611464565b604051601f8201601f19908116603f0116810190838211818310171561151257611512611464565b816040528281528a602084870101111561152a575f80fd5b826020860160208301375f60208483010152809550505050505092959194509250565b5f806040838503121561155e575f80fd5b61156783611321565b915061157560208401611321565b90509250929050565b600181811c9082168061159257607f821691505b6020821081036115b057634e487b7160e01b5f52602260045260245ffd5b50919050565b634e487b7160e01b5f52601160045260245ffd5b5f600182016115db576115db6115b6565b5060010190565b8181038181111561034b5761034b6115b6565b5f8261160f57634e487b7160e01b5f52601260045260245ffd5b500690565b634e487b7160e01b5f52603260045260245ffd5b8082018082111561034b5761034b6115b6565b601f82111561075457805f5260205f20601f840160051c810160208510156116605750805b601f840160051c820191505b81811015610e5b575f815560010161166c565b67ffffffffffffffff83111561169757611697611464565b6116ab836116a5835461157e565b8361163b565b5f601f8411600181146116dc575f85156116c55750838201355b5f19600387901b1c1916600186901b178355610e5b565b5f83815260208120601f198716915b8281101561170b57868501358255602094850194600190920191016116eb565b5086821015611727575f1960f88860031b161c19848701351681555b505060018560011b0183555050505050565b5f835161174a8184602088016112ab565b83519083019061175e8183602088016112ab565b01949350505050565b815167ffffffffffffffff81111561178157611781611464565b6117958161178f845461157e565b8461163b565b602080601f8311600181146117c8575f84156117b15750858301515b5f19600386901b1c1916600185901b178555610e59565b5f85815260208120601f198616915b828110156117f6578886015182559484019460019091019084016117d7565b508582101561181357878501515f19600388901b60f8161c191681555b5050505050600190811b01905550565b6001600160a01b03858116825284166020820152604081018390526080606082018190525f90611855908301846112cd565b9695505050505050565b5f6020828403121561186f575f80fd5b8151610ecc8161127b56fea264697066735822122040a1e8fe2d81894db5bea4d069f4b11f5c6b8cc13de28145f6ce14bf4a6ba78364736f6c63430008180033","linkReferences":{}},"methodIdentifiers":{"BEE_TOKEN()":"7521236c","MAX_SUPPLY()":"32cb6b0c","approve(address,uint256)":"095ea7b3","balanceOf(address)":"70a08231","getApproved(uint256)":"081812fc","isApprovedForAll(address,address)":"e985e9c5","mint()":"1249c58b","mintPrice()":"6817c76c","name()":"06fdde03","nextTokenId()":"75794a3c","owner()":"8da5cb5b","ownerOf(uint256)":"6352211e","renounceOwnership()":"715018a6","safeTransferFrom(address,address,uint256)":"42842e0e","safeTransferFrom(address,address,uint256,bytes)":"b88d4fde","setApprovalForAll(address,bool)":"a22cb465","supportsInterface(bytes4)":"01ffc9a7","symbol()":"95d89b41","tokenURI(uint256)":"c87b56dd","tokenURIs(uint256)":"6c8b703f","totalMinted()":"a2309ff8","transferFrom(address,address,uint256)":"23b872dd","transferOwnership(address)":"f2fde38b","updateTokenURI(uint256,string)":"18e97fd1"},"id":44}