{"abi":[{"type":"constructor","inputs":[{"name":"owner_","type":"address","internalType":"address"},{"name":"token_","type":"address","internalType":"contract IERC20Decimals"},{"name":"claimAmount_","type":"uint256","internalType":"uint256"},{"name":"cooldown_","type":"uint256","internalType":"uint256"}],"stateMutability":"nonpayable"},{"type":"function","name":"claim","inputs":[],"outputs":[],"stateMutability":"nonpayable"},{"type":"function","name":"claimAmount","inputs":[],"outputs":[{"name":"","type":"uint256","internalType":"uint256"}],"stateMutability":"view"},{"type":"function","name":"cooldown","inputs":[],"outputs":[{"name":"","type":"uint256","internalType":"uint256"}],"stateMutability":"view"},{"type":"function","name":"lastClaim","inputs":[{"name":"","type":"address","internalType":"address"}],"outputs":[{"name":"","type":"uint256","internalType":"uint256"}],"stateMutability":"view"},{"type":"function","name":"owner","inputs":[],"outputs":[{"name":"","type":"address","internalType":"address"}],"stateMutability":"view"},{"type":"function","name":"renounceOwnership","inputs":[],"outputs":[],"stateMutability":"nonpayable"},{"type":"function","name":"setClaimAmount","inputs":[{"name":"newAmount","type":"uint256","internalType":"uint256"}],"outputs":[],"stateMutability":"nonpayable"},{"type":"function","name":"setCooldown","inputs":[{"name":"newCooldown","type":"uint256","internalType":"uint256"}],"outputs":[],"stateMutability":"nonpayable"},{"type":"function","name":"token","inputs":[],"outputs":[{"name":"","type":"address","internalType":"contract IERC20Decimals"}],"stateMutability":"view"},{"type":"function","name":"transferOwnership","inputs":[{"name":"newOwner","type":"address","internalType":"address"}],"outputs":[],"stateMutability":"nonpayable"},{"type":"event","name":"Claimed","inputs":[{"name":"user","type":"address","indexed":true,"internalType":"address"},{"name":"amount","type":"uint256","indexed":false,"internalType":"uint256"}],"anonymous":false},{"type":"event","name":"OwnershipTransferred","inputs":[{"name":"previousOwner","type":"address","indexed":true,"internalType":"address"},{"name":"newOwner","type":"address","indexed":true,"internalType":"address"}],"anonymous":false},{"type":"error","name":"OwnableInvalidOwner","inputs":[{"name":"owner","type":"address","internalType":"address"}]},{"type":"error","name":"OwnableUnauthorizedAccount","inputs":[{"name":"account","type":"address","internalType":"address"}]},{"type":"error","name":"ReentrancyGuardReentrantCall","inputs":[]},{"type":"error","name":"SafeERC20FailedOperation","inputs":[{"name":"token","type":"address","internalType":"address"}]}],"bytecode":{"object":"0x60a060405234801561000f575f80fd5b5060405161073138038061073183398101604081905261002e916100ec565b60015f55836001600160a01b03811661006057604051631e4fbdf760e01b81525f600482015260240160405180910390fd5b61006981610084565b506001600160a01b0390921660805260025560035550610131565b600180546001600160a01b038381166001600160a01b0319831681179093556040519116919082907f8be0079c531659141344cd1fd0a4f28419497f9722a3daafe3b4186f6b6457e0905f90a35050565b6001600160a01b03811681146100e9575f80fd5b50565b5f805f80608085870312156100ff575f80fd5b845161010a816100d5565b602086015190945061011b816100d5565b6040860151606090960151949790965092505050565b6080516105da6101575f395f81816101580152818161020201526102db01526105da5ff3fe608060405234801561000f575f80fd5b506004361061009b575f3560e01c8063830953ab11610063578063830953ab146100ff5780638da5cb5b14610108578063b1c7ef0c1461012d578063f2fde38b14610140578063fc0c546a14610153575f80fd5b80634e71d92d1461009f5780634fc3f41a146100a95780635c16e15e146100bc578063715018a6146100ee578063787a08a6146100f6575b5f80fd5b6100a761017a565b005b6100a76100b7366004610524565b61034d565b6100db6100ca36600461053b565b60046020525f908152604090205481565b6040519081526020015b60405180910390f35b6100a761035a565b6100db60035481565b6100db60025481565b6001546001600160a01b03165b6040516001600160a01b0390911681526020016100e5565b6100a761013b366004610524565b61036b565b6100a761014e36600461053b565b610378565b6101157f000000000000000000000000000000000000000000000000000000000000000081565b6101826103b5565b335f9081526004602052604090205480156101ea576003546101a49082610568565b4210156101ea5760405162461bcd60e51b815260206004820152600f60248201526e21b630b4b69d1031b7b7b63237bbb760891b60448201526064015b60405180910390fd5b6002546040516370a0823160e01b81523060048201527f00000000000000000000000000000000000000000000000000000000000000006001600160a01b0316906370a0823190602401602060405180830381865afa15801561024f573d5f803e3d5ffd5b505050506040513d601f19601f82011682018060405250810190610273919061058d565b10156102c15760405162461bcd60e51b815260206004820152601b60248201527f5661756c743a20696e73756666696369656e742062616c616e6365000000000060448201526064016101e1565b335f818152600460205260409020429055600254610309917f00000000000000000000000000000000000000000000000000000000000000006001600160a01b0316916103dd565b60025460405190815233907fd8138f8a3f377c5259ca548e70e4c2de94f129f5a11036a15b69513cba2b426a9060200160405180910390a25061034b60015f55565b565b610355610434565b600355565b610362610434565b61034b5f610461565b610373610434565b600255565b610380610434565b6001600160a01b0381166103a957604051631e4fbdf760e01b81525f60048201526024016101e1565b6103b281610461565b50565b60025f54036103d757604051633ee5aeb560e01b815260040160405180910390fd5b60025f55565b604080516001600160a01b038416602482015260448082018490528251808303909101815260649091019091526020810180516001600160e01b031663a9059cbb60e01b17905261042f9084906104b2565b505050565b6001546001600160a01b0316331461034b5760405163118cdaa760e01b81523360048201526024016101e1565b600180546001600160a01b038381166001600160a01b0319831681179093556040519116919082907f8be0079c531659141344cd1fd0a4f28419497f9722a3daafe3b4186f6b6457e0905f90a35050565b5f8060205f8451602086015f885af1806104d1576040513d5f823e3d81fd5b50505f513d915081156104e85780600114156104f5565b6001600160a01b0384163b155b1561051e57604051635274afe760e01b81526001600160a01b03851660048201526024016101e1565b50505050565b5f60208284031215610534575f80fd5b5035919050565b5f6020828403121561054b575f80fd5b81356001600160a01b0381168114610561575f80fd5b9392505050565b8082018082111561058757634e487b7160e01b5f52601160045260245ffd5b92915050565b5f6020828403121561059d575f80fd5b505191905056fea26469706673582212209494f74c6861bff3700fecd6e05b2a4a2ac7cac417c8c204142d46cd2793f29c64736f6c63430008180033","linkReferences":{}},"methodIdentifiers":{"claim()":"4e71d92d","claimAmount()":"830953ab","cooldown()":"787a08a6","lastClaim(address)":"5c16e15e","owner()":"8da5cb5b","renounceOwnership()":"715018a6","setClaimAmount(uint256)":"b1c7ef0c","setCooldown(uint256)":"4fc3f41a","token()":"fc0c546a","transferOwnership(address)":"f2fde38b"},"id":50}