{"abi":[{"type":"constructor","inputs":[{"name":"owner_","type":"address","internalType":"address"}],"stateMutability":"nonpayable"},{"type":"function","name":"TOTAL_SUPPLY","inputs":[],"outputs":[{"name":"","type":"uint256","internalType":"uint256"}],"stateMutability":"view"},{"type":"function","name":"allowance","inputs":[{"name":"owner","type":"address","internalType":"address"},{"name":"spender","type":"address","internalType":"address"}],"outputs":[{"name":"","type":"uint256","internalType":"uint256"}],"stateMutability":"view"},{"type":"function","name":"approve","inputs":[{"name":"spender","type":"address","internalType":"address"},{"name":"value","type":"uint256","internalType":"uint256"}],"outputs":[{"name":"","type":"bool","internalType":"bool"}],"stateMutability":"nonpayable"},{"type":"function","name":"balanceOf","inputs":[{"name":"account","type":"address","internalType":"address"}],"outputs":[{"name":"","type":"uint256","internalType":"uint256"}],"stateMutability":"view"},{"type":"function","name":"burn","inputs":[{"name":"value","type":"uint256","internalType":"uint256"}],"outputs":[],"stateMutability":"nonpayable"},{"type":"function","name":"burnFrom","inputs":[{"name":"account","type":"address","internalType":"address"},{"name":"value","type":"uint256","internalType":"uint256"}],"outputs":[],"stateMutability":"nonpayable"},{"type":"function","name":"decimals","inputs":[],"outputs":[{"name":"","type":"uint8","internalType":"uint8"}],"stateMutability":"pure"},{"type":"function","name":"name","inputs":[],"outputs":[{"name":"","type":"string","internalType":"string"}],"stateMutability":"view"},{"type":"function","name":"owner","inputs":[],"outputs":[{"name":"","type":"address","internalType":"address"}],"stateMutability":"view"},{"type":"function","name":"renounceOwnership","inputs":[],"outputs":[],"stateMutability":"nonpayable"},{"type":"function","name":"symbol","inputs":[],"outputs":[{"name":"","type":"string","internalType":"string"}],"stateMutability":"view"},{"type":"function","name":"totalSupply","inputs":[],"outputs":[{"name":"","type":"uint256","internalType":"uint256"}],"stateMutability":"view"},{"type":"function","name":"transfer","inputs":[{"name":"to","type":"address","internalType":"address"},{"name":"value","type":"uint256","internalType":"uint256"}],"outputs":[{"name":"","type":"bool","internalType":"bool"}],"stateMutability":"nonpayable"},{"type":"function","name":"transferFrom","inputs":[{"name":"from","type":"address","internalType":"address"},{"name":"to","type":"address","internalType":"address"},{"name":"value","type":"uint256","internalType":"uint256"}],"outputs":[{"name":"","type":"bool","internalType":"bool"}],"stateMutability":"nonpayable"},{"type":"function","name":"transferOwnership","inputs":[{"name":"newOwner","type":"address","internalType":"address"}],"outputs":[],"stateMutability":"nonpayable"},{"type":"event","name":"Approval","inputs":[{"name":"owner","type":"address","indexed":true,"internalType":"address"},{"name":"spender","type":"address","indexed":true,"internalType":"address"},{"name":"value","type":"uint256","indexed":false,"internalType":"uint256"}],"anonymous":false},{"type":"event","name":"OwnershipTransferred","inputs":[{"name":"previousOwner","type":"address","indexed":true,"internalType":"address"},{"name":"newOwner","type":"address","indexed":true,"internalType":"address"}],"anonymous":false},{"type":"event","name":"Transfer","inputs":[{"name":"from","type":"address","indexed":true,"internalType":"address"},{"name":"to","type":"address","indexed":true,"internalType":"address"},{"name":"value","type":"uint256","indexed":false,"internalType":"uint256"}],"anonymous":false},{"type":"error","name":"ERC20InsufficientAllowance","inputs":[{"name":"spender","type":"address","internalType":"address"},{"name":"allowance","type":"uint256","internalType":"uint256"},{"name":"needed","type":"uint256","internalType":"uint256"}]},{"type":"error","name":"ERC20InsufficientBalance","inputs":[{"name":"sender","type":"address","internalType":"address"},{"name":"balance","type":"uint256","internalType":"uint256"},{"name":"needed","type":"uint256","internalType":"uint256"}]},{"type":"error","name":"ERC20InvalidApprover","inputs":[{"name":"approver","type":"address","internalType":"address"}]},{"type":"error","name":"ERC20InvalidReceiver","inputs":[{"name":"receiver","type":"address","internalType":"address"}]},{"type":"error","name":"ERC20InvalidSender","inputs":[{"name":"sender","type":"address","internalType":"address"}]},{"type":"error","name":"ERC20InvalidSpender","inputs":[{"name":"spender","type":"address","internalType":"address"}]},{"type":"error","name":"OwnableInvalidOwner","inputs":[{"name":"owner","type":"address","internalType":"address"}]},{"type":"error","name":"OwnableUnauthorizedAccount","inputs":[{"name":"account","type":"address","internalType":"address"}]}],"bytecode":{"object":"0x608060405234801562000010575f80fd5b5060405162000d7b38038062000d7b8339810160408190526200003391620002a7565b8060405180604001604052806005815260200164447242454560d81b8152506040518060400160405280600381526020016242454560e81b81525081600390816200007f919062000374565b5060046200008e828262000374565b5050506001600160a01b038116620000c057604051631e4fbdf760e01b81525f60048201526024015b60405180910390fd5b620000cb81620000eb565b50620000e4816b204fce5e3e250261100000006200013c565b5062000466565b600580546001600160a01b038381166001600160a01b0319831681179093556040519116919082907f8be0079c531659141344cd1fd0a4f28419497f9722a3daafe3b4186f6b6457e0905f90a35050565b6001600160a01b038216620001675760405163ec442f0560e01b81525f6004820152602401620000b7565b620001745f838362000178565b5050565b6001600160a01b038316620001a6578060025f8282546200019a919062000440565b90915550620002189050565b6001600160a01b0383165f9081526020819052604090205481811015620001fa5760405163391434e360e21b81526001600160a01b03851660048201526024810182905260448101839052606401620000b7565b6001600160a01b0384165f9081526020819052604090209082900390555b6001600160a01b038216620002365760028054829003905562000254565b6001600160a01b0382165f9081526020819052604090208054820190555b816001600160a01b0316836001600160a01b03167fddf252ad1be2c89b69c2b068fc378daa952ba7f163c4a11628f55a4df523b3ef836040516200029a91815260200190565b60405180910390a3505050565b5f60208284031215620002b8575f80fd5b81516001600160a01b0381168114620002cf575f80fd5b9392505050565b634e487b7160e01b5f52604160045260245ffd5b600181811c90821680620002ff57607f821691505b6020821081036200031e57634e487b7160e01b5f52602260045260245ffd5b50919050565b601f8211156200036f57805f5260205f20601f840160051c810160208510156200034b5750805b601f840160051c820191505b818110156200036c575f815560010162000357565b50505b505050565b81516001600160401b03811115620003905762000390620002d6565b620003a881620003a18454620002ea565b8462000324565b602080601f831160018114620003de575f8415620003c65750858301515b5f19600386901b1c1916600185901b17855562000438565b5f85815260208120601f198616915b828110156200040e57888601518255948401946001909101908401620003ed565b50858210156200042c57878501515f19600388901b60f8161c191681555b505060018460011b0185555b505050505050565b808201808211156200046057634e487b7160e01b5f52601160045260245ffd5b92915050565b61090780620004745f395ff3fe608060405234801561000f575f80fd5b50600436106100f0575f3560e01c8063715018a61161009357806395d89b411161006357806395d89b41146101ef578063a9059cbb146101f7578063dd62ed3e1461020a578063f2fde38b14610242575f80fd5b8063715018a6146101a657806379cc6790146101ae5780638da5cb5b146101c1578063902d55a5146101dc575f80fd5b806323b872dd116100ce57806323b872dd14610147578063313ce5671461015a57806342966c681461016957806370a082311461017e575f80fd5b806306fdde03146100f4578063095ea7b31461011257806318160ddd14610135575b5f80fd5b6100fc610255565b604051610109919061074a565b60405180910390f35b6101256101203660046107b1565b6102e5565b6040519015158152602001610109565b6002545b604051908152602001610109565b6101256101553660046107d9565b6102fe565b60405160128152602001610109565b61017c610177366004610812565b610321565b005b61013961018c366004610829565b6001600160a01b03165f9081526020819052604090205490565b61017c61032e565b61017c6101bc3660046107b1565b610341565b6005546040516001600160a01b039091168152602001610109565b6101396b204fce5e3e2502611000000081565b6100fc61035a565b6101256102053660046107b1565b610369565b610139610218366004610849565b6001600160a01b039182165f90815260016020908152604080832093909416825291909152205490565b61017c610250366004610829565b610376565b6060600380546102649061087a565b80601f01602080910402602001604051908101604052809291908181526020018280546102909061087a565b80156102db5780601f106102b2576101008083540402835291602001916102db565b820191905f5260205f20905b8154815290600101906020018083116102be57829003601f168201915b5050505050905090565b5f336102f28185856103b5565b60019150505b92915050565b5f3361030b8582856103c7565b610316858585610443565b506001949350505050565b61032b33826104a0565b50565b6103366104d4565b61033f5f610501565b565b61034c8233836103c7565b61035682826104a0565b5050565b6060600480546102649061087a565b5f336102f2818585610443565b61037e6104d4565b6001600160a01b0381166103ac57604051631e4fbdf760e01b81525f60048201526024015b60405180910390fd5b61032b81610501565b6103c28383836001610552565b505050565b6001600160a01b038381165f908152600160209081526040808320938616835292905220545f1981101561043d578181101561042f57604051637dc7a0d960e11b81526001600160a01b038416600482015260248101829052604481018390526064016103a3565b61043d84848484035f610552565b50505050565b6001600160a01b03831661046c57604051634b637e8f60e11b81525f60048201526024016103a3565b6001600160a01b0382166104955760405163ec442f0560e01b81525f60048201526024016103a3565b6103c2838383610624565b6001600160a01b0382166104c957604051634b637e8f60e11b81525f60048201526024016103a3565b610356825f83610624565b6005546001600160a01b0316331461033f5760405163118cdaa760e01b81523360048201526024016103a3565b600580546001600160a01b038381166001600160a01b0319831681179093556040519116919082907f8be0079c531659141344cd1fd0a4f28419497f9722a3daafe3b4186f6b6457e0905f90a35050565b6001600160a01b03841661057b5760405163e602df0560e01b81525f60048201526024016103a3565b6001600160a01b0383166105a457604051634a1406b160e11b81525f60048201526024016103a3565b6001600160a01b038085165f908152600160209081526040808320938716835292905220829055801561043d57826001600160a01b0316846001600160a01b03167f8c5be1e5ebec7d5bd14f71427d1e84f3dd0314c0f7b2291e5b200ac8c7c3b9258460405161061691815260200190565b60405180910390a350505050565b6001600160a01b03831661064e578060025f82825461064391906108b2565b909155506106be9050565b6001600160a01b0383165f90815260208190526040902054818110156106a05760405163391434e360e21b81526001600160a01b038516600482015260248101829052604481018390526064016103a3565b6001600160a01b0384165f9081526020819052604090209082900390555b6001600160a01b0382166106da576002805482900390556106f8565b6001600160a01b0382165f9081526020819052604090208054820190555b816001600160a01b0316836001600160a01b03167fddf252ad1be2c89b69c2b068fc378daa952ba7f163c4a11628f55a4df523b3ef8360405161073d91815260200190565b60405180910390a3505050565b5f602080835283518060208501525f5b818110156107765785810183015185820160400152820161075a565b505f604082860101526040601f19601f8301168501019250505092915050565b80356001600160a01b03811681146107ac575f80fd5b919050565b5f80604083850312156107c2575f80fd5b6107cb83610796565b946020939093013593505050565b5f805f606084860312156107eb575f80fd5b6107f484610796565b925061080260208501610796565b9150604084013590509250925092565b5f60208284031215610822575f80fd5b5035919050565b5f60208284031215610839575f80fd5b61084282610796565b9392505050565b5f806040838503121561085a575f80fd5b61086383610796565b915061087160208401610796565b90509250929050565b600181811c9082168061088e57607f821691505b6020821081036108ac57634e487b7160e01b5f52602260045260245ffd5b50919050565b808201808211156102f857634e487b7160e01b5f52601160045260245ffdfea2646970667358221220cfb31509df4a97d50e231147d60c74c2ba2c0597057aea6f35ce8e76e640d46a64736f6c63430008180033","linkReferences":{}},"methodIdentifiers":{"TOTAL_SUPPLY()":"902d55a5","allowance(address,address)":"dd62ed3e","approve(address,uint256)":"095ea7b3","balanceOf(address)":"70a08231","burn(uint256)":"42966c68","burnFrom(address,uint256)":"79cc6790","decimals()":"313ce567","name()":"06fdde03","owner()":"8da5cb5b","renounceOwnership()":"715018a6","symbol()":"95d89b41","totalSupply()":"18160ddd","transfer(address,uint256)":"a9059cbb","transferFrom(address,address,uint256)":"23b872dd","transferOwnership(address)":"f2fde38b"},"id":48}