{"abi":[{"type":"constructor","inputs":[{"name":"beeToken","type":"address","internalType":"address"}],"stateMutability":"nonpayable"},{"type":"function","name":"BEE","inputs":[],"outputs":[{"name":"","type":"address","internalType":"contract IERC20"}],"stateMutability":"view"},{"type":"function","name":"calculateInterest","inputs":[{"name":"user","type":"address","internalType":"address"}],"outputs":[{"name":"","type":"uint256","internalType":"uint256"}],"stateMutability":"view"},{"type":"function","name":"contractBalance","inputs":[],"outputs":[{"name":"","type":"uint256","internalType":"uint256"}],"stateMutability":"view"},{"type":"function","name":"depositBee","inputs":[{"name":"amount","type":"uint256","internalType":"uint256"}],"outputs":[],"stateMutability":"nonpayable"},{"type":"function","name":"interestRatePerSecond","inputs":[],"outputs":[{"name":"","type":"uint256","internalType":"uint256"}],"stateMutability":"view"},{"type":"function","name":"owner","inputs":[],"outputs":[{"name":"","type":"address","internalType":"address"}],"stateMutability":"view"},{"type":"function","name":"renounceOwnership","inputs":[],"outputs":[],"stateMutability":"nonpayable"},{"type":"function","name":"setInterestRate","inputs":[{"name":"newRatePerSecond","type":"uint256","internalType":"uint256"}],"outputs":[],"stateMutability":"nonpayable"},{"type":"function","name":"stake","inputs":[{"name":"amount","type":"uint256","internalType":"uint256"}],"outputs":[],"stateMutability":"nonpayable"},{"type":"function","name":"stakes","inputs":[{"name":"","type":"address","internalType":"address"}],"outputs":[{"name":"amount","type":"uint256","internalType":"uint256"},{"name":"startTime","type":"uint256","internalType":"uint256"},{"name":"principal","type":"uint256","internalType":"uint256"}],"stateMutability":"view"},{"type":"function","name":"totalStaked","inputs":[],"outputs":[{"name":"","type":"uint256","internalType":"uint256"}],"stateMutability":"view"},{"type":"function","name":"transferOwnership","inputs":[{"name":"newOwner","type":"address","internalType":"address"}],"outputs":[],"stateMutability":"nonpayable"},{"type":"function","name":"withdraw","inputs":[],"outputs":[],"stateMutability":"nonpayable"},{"type":"event","name":"OwnershipTransferred","inputs":[{"name":"previousOwner","type":"address","indexed":true,"internalType":"address"},{"name":"newOwner","type":"address","indexed":true,"internalType":"address"}],"anonymous":false},{"type":"event","name":"Staked","inputs":[{"name":"user","type":"address","indexed":true,"internalType":"address"},{"name":"amount","type":"uint256","indexed":false,"internalType":"uint256"}],"anonymous":false},{"type":"event","name":"Withdrawn","inputs":[{"name":"user","type":"address","indexed":true,"internalType":"address"},{"name":"principal","type":"uint256","indexed":false,"internalType":"uint256"},{"name":"interest","type":"uint256","indexed":false,"internalType":"uint256"}],"anonymous":false},{"type":"error","name":"OwnableInvalidOwner","inputs":[{"name":"owner","type":"address","internalType":"address"}]},{"type":"error","name":"OwnableUnauthorizedAccount","inputs":[{"name":"account","type":"address","internalType":"address"}]},{"type":"error","name":"ReentrancyGuardReentrantCall","inputs":[]}],"bytecode":{"object":"0x60a06040526405e82b7a80600355348015610018575f80fd5b50604051610b82380380610b8283398101604081905261003791610121565b338061005d57604051631e4fbdf760e01b81525f60048201526024015b60405180910390fd5b610066816100d2565b50600180556001600160a01b0381166100c15760405162461bcd60e51b815260206004820152601560248201527f496e76616c696420746f6b656e206164647265737300000000000000000000006044820152606401610054565b6001600160a01b031660805261014e565b5f80546001600160a01b038381166001600160a01b0319831681178455604051919092169283917f8be0079c531659141344cd1fd0a4f28419497f9722a3daafe3b4186f6b6457e09190a35050565b5f60208284031215610131575f80fd5b81516001600160a01b0381168114610147575f80fd5b9392505050565b6080516109f96101895f395f81816101b8015281816102730152818161037e0152818161045101528181610563015261064301526109f95ff3fe608060405234801561000f575f80fd5b50600436106100cb575f3560e01c80638b7afe2e11610088578063a694fc3a11610063578063a694fc3a146101a0578063addd5a21146101b3578063e11932cf146101da578063f2fde38b146101ed575f80fd5b80638b7afe2e1461016b5780638da5cb5b146101735780639cc820da14610197575f80fd5b80631080e5cc146100cf57806316934fc4146100e45780633ccfd60b146101315780635f84f30214610139578063715018a61461014c578063817b1cd214610154575b5f80fd5b6100e26100dd3660046108d3565b610200565b005b6101116100f23660046108ea565b600260208190525f918252604090912080546001820154919092015483565b604080519384526020840192909252908201526060015b60405180910390f35b6100e26102e9565b6100e26101473660046108d3565b61052e565b6100e261053b565b61015d60045481565b604051908152602001610128565b61015d61054c565b5f546001600160a01b03165b6040516001600160a01b039091168152602001610128565b61015d60035481565b6100e26101ae3660046108d3565b6105d9565b61017f7f000000000000000000000000000000000000000000000000000000000000000081565b61015d6101e83660046108ea565b610781565b6100e26101fb3660046108ea565b6107f4565b61020861082e565b5f81116102515760405162461bcd60e51b81526020600482015260126024820152710416d6f756e74206d757374206265203e20360741b60448201526064015b60405180910390fd5b6040516323b872dd60e01b8152336004820152306024820152604481018290527f00000000000000000000000000000000000000000000000000000000000000006001600160a01b0316906323b872dd906064016020604051808303815f875af11580156102c1573d5f803e3d5ffd5b505050506040513d601f19601f820116820180604052508101906102e59190610917565b5050565b6102f161085a565b335f90815260026020526040902080546103385760405162461bcd60e51b81526020600482015260086024820152674e6f207374616b6560c01b6044820152606401610248565b80545f61034433610781565b5f8085556001850181905590915061035c828461094a565b6040516370a0823160e01b815230600482015290915081906001600160a01b037f000000000000000000000000000000000000000000000000000000000000000016906370a0823190602401602060405180830381865afa1580156103c3573d5f803e3d5ffd5b505050506040513d601f19601f820116820180604052508101906103e79190610963565b10156104355760405162461bcd60e51b815260206004820152601d60248201527f496e73756666696369656e7420636f6e74726163742062616c616e63650000006044820152606401610248565b60405163a9059cbb60e01b8152336004820152602481018290527f00000000000000000000000000000000000000000000000000000000000000006001600160a01b03169063a9059cbb906044016020604051808303815f875af115801561049f573d5f803e3d5ffd5b505050506040513d601f19601f820116820180604052508101906104c39190610917565b50836002015460045f8282546104d9919061097a565b90915550505f6002850155604080518481526020810184905233917f92ccf450a286a957af52509bc1c9939d1a6a481783e142e41e2499f0bb66ebc6910160405180910390a25050505061052c60018055565b565b61053661082e565b600355565b61054361082e565b61052c5f610884565b6040516370a0823160e01b81523060048201525f907f00000000000000000000000000000000000000000000000000000000000000006001600160a01b0316906370a0823190602401602060405180830381865afa1580156105b0573d5f803e3d5ffd5b505050506040513d601f19601f820116820180604052508101906105d49190610963565b905090565b6105e161085a565b5f81116106215760405162461bcd60e51b815260206004820152600e60248201526d043616e6e6f74207374616b6520360941b6044820152606401610248565b6040516323b872dd60e01b8152336004820152306024820152604481018290527f00000000000000000000000000000000000000000000000000000000000000006001600160a01b0316906323b872dd906064016020604051808303815f875af1158015610691573d5f803e3d5ffd5b505050506040513d601f19601f820116820180604052508101906106b59190610917565b50335f9081526002602052604090208054156106f0575f6106d533610781565b905080825f015f8282546106e9919061094a565b9091555050505b81815f015f828254610702919061094a565b9250508190555081816002015f82825461071c919061094a565b925050819055508160045f828254610734919061094a565b909155505042600182015560405182815233907f9e71bc8eea02a63969f509818f2dafb9254532904319f9dbda79b67bd34a5f3d9060200160405180910390a25061077e60018055565b50565b6001600160a01b0381165f908152600260205260408120805482036107a857505f92915050565b5f8160010154426107b9919061097a565b90505f670de0b6b3a764000060035483855f01546107d7919061098d565b6107e1919061098d565b6107eb91906109a4565b95945050505050565b6107fc61082e565b6001600160a01b03811661082557604051631e4fbdf760e01b81525f6004820152602401610248565b61077e81610884565b5f546001600160a01b0316331461052c5760405163118cdaa760e01b8152336004820152602401610248565b60026001540361087d57604051633ee5aeb560e01b815260040160405180910390fd5b6002600155565b5f80546001600160a01b038381166001600160a01b0319831681178455604051919092169283917f8be0079c531659141344cd1fd0a4f28419497f9722a3daafe3b4186f6b6457e09190a35050565b5f602082840312156108e3575f80fd5b5035919050565b5f602082840312156108fa575f80fd5b81356001600160a01b0381168114610910575f80fd5b9392505050565b5f60208284031215610927575f80fd5b81518015158114610910575f80fd5b634e487b7160e01b5f52601160045260245ffd5b8082018082111561095d5761095d610936565b92915050565b5f60208284031215610973575f80fd5b5051919050565b8181038181111561095d5761095d610936565b808202811582820484141761095d5761095d610936565b5f826109be57634e487b7160e01b5f52601260045260245ffd5b50049056fea264697066735822122070c139d486ef58a3140512321ea2e90dd573c2c5c0e54615e196d98b88646f6364736f6c63430008180033","linkReferences":{}},"methodIdentifiers":{"BEE()":"addd5a21","calculateInterest(address)":"e11932cf","contractBalance()":"8b7afe2e","depositBee(uint256)":"1080e5cc","interestRatePerSecond()":"9cc820da","owner()":"8da5cb5b","renounceOwnership()":"715018a6","setInterestRate(uint256)":"5f84f302","stake(uint256)":"a694fc3a","stakes(address)":"16934fc4","totalStaked()":"817b1cd2","transferOwnership(address)":"f2fde38b","withdraw()":"3ccfd60b"},"id":27}